:100000000C943E000C9448000C9448000C9448005A
:100010000C9448000C9448000C9448000C94480040
:100020000C9448000C9448000C9448000C94480030
:100030000C9448000C9448000C9448000C94480020
:100040000C9448000C9448000C9448000C94480010
:100050000C9448000C9448000C9448000C94480000
:100060000C9448000C9448000C9448000C944800F0
:100070000C9448000C9448000C94480011241FBEB6
:10008000CFEFD8E0DEBFCDBF0E944A000C947600CF
:100090000C9400008FEF84B920E090E084E141E00F
:1000A00045B930E0381741F0EFECF7E03197F1F760
:1000B00000C000003F5FF6CF15B830E0391741F0BF
:1000C000EFECF7E03197F1F700C000003F5FF6CFAB
:1000D000273021F4815029F09F5F20E0943121F4F2
:1000E00001C020E090E084E12F5FDACFF894FFCFE9
:00000001FF
