:100000000C943E000C9448000C9448000C9448005A
:100010000C9448000C9448000C9448000C94480040
:100020000C9448000C9448000C9448000C94480030
:100030000C9448000C9448000C9448000C94480020
:100040000C9448000C9448000C9448000C94480010
:100050000C9448000C9448000C9448000C94480000
:100060000C9448000C9448000C9448000C944800F0
:100070000C9448000C9448000C94480011241FBEB6
:10008000CFEFD8E0DEBFCDBF0E9459000C94D50061
:100090000C9400004A9B0BC08FE19EE40197F1F79E
:1000A00000C0000089B182FB882780F9089580E0B4
:1000B00008958FEF84B91AB880E090E0C1E0D2E0F3
:1000C00006E010E08230910531F144F4009771F0C0
:1000D00081309105B9F720E030E016C084309105F9
:1000E00059F10CF18530910579F1ECCFC5B90E9439
:1000F0004A0090E0E7CF2F5F3F4FC901B8010E944F
:10010000AD00892B31F4C5B94A99F5CF82E090E072
:10011000D9CFD5B9F9CFD5B90E944A008823B1F318
:1001200083E090E0CFCF0E944A00882311F0C5B948
:10013000FACF84E090E0C6CF15B80E944A00882329
:10014000C1F385E090E0BECF0E944A00882311F001
:10015000D5B9FACF80E090E0B5CF97FB072E16F423
:10016000009407D077FD09D00E94C10007FC05D09C
:100170003EF4909581959F4F0895709561957F4FBE
:100180000895AA1BBB1B51E107C0AA1FBB1FA617DE
:10019000B70710F0A61BB70B881F991F5A95A9F730
:0E01A00080959095BC01CD010895F894FFCF95
:00000001FF
