:100000000C943E000C9452000C9450000C94500040
:100010000C9450000C9450000C9450000C94500020
:100020000C9450000C9450000C9450000C94500010
:100030000C9450000C9450000C9450000C94500000
:100040000C9450000C9450000C9450000C945000F0
:100050000C9450000C9450000C9450000C945000E0
:100060000C9450000C9450000C9450000C945000D0
:100070000C9450000C9450000C94500011241FBE9E
:10008000CFEFD8E0DEBFCDBF11E0A0E0B1E001C00E
:100090001D92A330B107E1F70E9487000C94D400B1
:1000A0000C9400001F920F920FB60F9211245F93D1
:1000B0006F937F938F939F93AF93BF938FE59AEE48
:1000C0000197F1F700C000008091010190E00196D6
:1000D00066E070E00E94AC0080930101E09ABF915D
:1000E000AF919F918F917F916F915F910F900FBE14
:1000F0000F901F901895F8948FEF84B91AB8E89A6A
:10010000E9E6F0E0808181608083789408950E9420
:100110007B00E0E0F0E032E041E0C6E0D0E0319684
:1001200020910101223081F028F4222379F021303E
:1001300029F010C0243061F068F408C0CF01BE017E
:100140000E94AC00892B31F425B9E9CF45B9E7CF3E
:1001500015B8E5CF35B9E3CF97FB072E16F4009419
:1001600007D077FD09D00E94C00007FC05D03EF4FF
:10017000909581959F4F0895709561957F4F089553
:10018000AA1BBB1B51E107C0AA1FBB1FA617B707BD
:1001900010F0A61BB70B881F991F5A95A9F78095D9
:0C01A0009095BC01CD010895F894FFCFAC
:00000001FF
